{
  "getBlockHash": {
    "result": "17d34e560a64717f5126272044bb34b911768a6b551059914432a2276670c8ff",
    "error": null,
    "id": "curltest"
  },
  "getBlock": {
    "result": {
      "hash": "17d34e560a64717f5126272044bb34b911768a6b551059914432a2276670c8ff",
      "confirmations": 3,
      "strippedsize": 214,
      "size": 250,
      "weight": 892,
      "height": 99,
      "version": 536870912,
      "versionHex": "20000000",
      "merkleroot": "60f2d8259dba360c265cdae6fc52b149d9f915e73608386a7e8d75ce63d27338",
      "tx": [
        "60f2d8259dba360c265cdae6fc52b149d9f915e73608386a7e8d75ce63d27338"
      ],
      "time": 1590490857,
      "mediantime": 1590490856,
      "nonce": 2,
      "bits": "207fffff",
      "difficulty": 4.656542373906925e-10,
      "chainwork": "00000000000000000000000000000000000000000000000000000000000000c8",
      "nTx": 1,
      "previousblockhash": "1d81f12687c614d2da57d1200fc2f8f1da27103a571fb95e9c3cb7c85cd43e48",
      "nextblockhash": "7ef9b3ffeaa3b600e4d0c664052e45ed53e8f28686d0f006603bf9cbcd927ed4"
    },
    "error": null,
    "id": "curltest"
  },
  "getBlockCount": { "result": 101, "error": null, "id": "curltest" },
  "handelFetchBlocks": {
    "getBlockCount": { "result": 101, "error": null, "id": "curltest" }
  },
  "getrawtransaction": {
    "result": {
      "in_active_chain": true,
      "txid": "60f2d8259dba360c265cdae6fc52b149d9f915e73608386a7e8d75ce63d27338",
      "hash": "a3a67b2ff2ea4cf86807e1c6eaa26d050297c2699a820b743807000c1bf66351",
      "version": 2,
      "size": 169,
      "vsize": 142,
      "weight": 568,
      "locktime": 0,
      "vin": [{ "coinbase": "01630101", "sequence": 4294967295 }],
      "vout": [
        {
          "value": 50.0,
          "n": 0,
          "scriptPubKey": {
            "asm": "0 0cf3cafa8590686c79d9a98481ee1632f20ce5c4",
            "hex": "00140cf3cafa8590686c79d9a98481ee1632f20ce5c4",
            "reqSigs": 1,
            "type": "witness_v0_keyhash",
            "addresses": ["bcrt1qpneu4759jp5xc7we4xzgrmskxteqeewytnxqm9"]
          }
        },
        {
          "value": 0.0,
          "n": 1,
          "scriptPubKey": {
            "asm": "OP_RETURN aa21a9ede2f61c3f71d1defd3fa999dfa36953755c690689799962b48bebd836974e8cf9",
            "hex": "6a24aa21a9ede2f61c3f71d1defd3fa999dfa36953755c690689799962b48bebd836974e8cf9",
            "type": "nulldata"
          }
        }
      ],
      "hex": "020000000001010000000000000000000000000000000000000000000000000000000000000000ffffffff0401630101ffffffff0200f2052a010000001600140cf3cafa8590686c79d9a98481ee1632f20ce5c40000000000000000266a24aa21a9ede2f61c3f71d1defd3fa999dfa36953755c690689799962b48bebd836974e8cf90120000000000000000000000000000000000000000000000000000000000000000000000000",
      "blockhash": "17d34e560a64717f5126272044bb34b911768a6b551059914432a2276670c8ff",
      "confirmations": 3,
      "time": 1590490857,
      "blocktime": 1590490857
    },
    "error": null,
    "id": "curltest"
  },
  "expected": {
    "handleFetchBlockData": {
      "blockData": {
        "nTxns": 1,
        "height": 99,
        "bits": "207fffff",
        "difficulty": 4.656542373906925e-10,
        "hash": "17d34e560a64717f5126272044bb34b911768a6b551059914432a2276670c8ff",
        "merkleRoot": "60f2d8259dba360c265cdae6fc52b149d9f915e73608386a7e8d75ce63d27338",
        "version": 536870912,
        "nonce": 2
      }
    },
    "handleFetchBlockCount": {
      "blockCount": 101
    },
    "handelFetchBlocks": {
      "blocks": [
        {
          "hash": "17d34e560a64717f5126272044bb34b911768a6b551059914432a2276670c8ff",
          "size": 250,
          "height": 99,
          "version": 536870912,
          "merkleRoot": "60f2d8259dba360c265cdae6fc52b149d9f915e73608386a7e8d75ce63d27338",
          "txnIds": [
            "60f2d8259dba360c265cdae6fc52b149d9f915e73608386a7e8d75ce63d27338"
          ],
          "nonce": 2,
          "bits": "207fffff",
          "difficulty": 4.656542373906925e-10,
          "time": "May 26, 04:30 pm",
          "nTxns": 1
        }
      ],
      "blockCount": 101
    },
    "handelFetchTxns": {
      "txns": [
        {
          "hash": "a3a67b2ff2ea4cf86807e1c6eaa26d050297c2699a820b743807000c1bf66351",
          "time": "May 26, 04:30 pm",
          "tos": [
            {
              "amount": "50",
              "address": "bcrt1qpneu4759jp5xc7we4xzgrmskxteqeewytnxqm9"
            },
            {
              "amount": "0",
              "address": "Unparsed Address"
            }
          ],
          "unit": "DFI"
        }
      ],
      "txnCount": 1
    }
  },
  "fetchBlockDataRequestTestData": {
    "nTxns": 0,
    "difficulty": 0,
    "height": 0,
    "bits": "",
    "version": 0,
    "nonce": 0,
    "hash": "",
    "merkleRoot": ""
  }
}
